:100000000A308A00B82A0000FF00030E8301A10015
:100010000A08A0008A010408A2007708A300780853
:10002000A4007908A5007A08A60003170D08031399
:10003000A70003170F080313A80003170C080313E6
:10004000A90003170E080313AA00831383128B1E43
:100050002B280B194C28220884002308F7002408B9
:10006000F8002508F9002608FA00270803178D0074
:100070000313280803178F000313290803178C00A4
:1000800003132A0803178E00031320088A00210E89
:100090008300FF0E7F0E09008A110A127628D434DD
:1000A000ED32A037753AA0102000D4326D38BA1264
:1000B000EC3A2024F536BA12EC3A20050D00433410
:1000C000E531EB39F536A02272396F39A0102000E6
:1000D000CE372039E539F037EE3965006639EF362D
:1000E000203AE832A0396537F33772006430810076
:1000F00000308316BE008701831287018316BD0A74
:1001000001303D02FA3E0318DE28063E8312E32842
:1001100065087F398316CD008312860083163E1052
:100120003E088700831207148316DE28660880388D
:100130008316CD00831286008316BE103E0887000A
:10014000831287148316DE2867087F398316CD0053
:100150008312860083163E113E088700831207151E
:100160008316DE2868087F398316CD008312860047
:100170008316BE113E088700831287158316DE287A
:1001800069087F398316CD008312860083163E12DC
:100190003E088700831207168316DE286A087F3917
:1001A0008316CD00831286008316BE123E08870098
:1001B000831287168316BD01DE28831683120B1166
:1001C0008A110A122B280A108A100A11820788281D
:1001D0009628A428B228C028CE28C43084008313CF
:1001E0000008031900290230F800F701F70BF62880
:1001F000F80BF5289730F700F70BFC28800BF32855
:10020000080083164A180829831288110A298316C0
:100210008312881583168811CA18122983120812AE
:100220001429831683120816831608124A191C29EA
:10023000831288121E298316831288168316881249
:10024000CA1926298312081328298316831208172E
:10025000831608130000831208158316081130292D
:10026000312983120811831608118312080083169E
:10027000CB01881500308312881901308316CB0416
:10028000081600308312081A0130F7000310F70D2A
:1002900077088316CB04881600308312881A013041
:1002A000F700F70DF70DFC30F70577088316CB0440
:1002B000081700308312081B0130F700F70DF70D07
:1002C000F70DF830F70577088316CB044B08F800D4
:1002D0008312080083160811081088108312081072
:1002E00083160810881508168816081783128814B4
:1002F0008316881000008312081583160811000069
:100300008312372178088316CA00831208118316D6
:100310000811000083120815831608118F29831213
:10032000372178088316C900831208118316081133
:1003300088110812881208134A0EF700F030F705EA
:1003400077084904F8007808C900C91B7229C70852
:10035000031DAE2983120810B029831683120814D6
:10036000831608100000831288108316881000007E
:100370008312081183160811480EC9000F30C905F1
:100380004908CA0083120121831648080F39C900A1
:10039000CA0083120121080028308316C0000C30E7
:1003A000C1000130C2000630C30083120811831659
:1003B0000811831208108316081083128810831600
:1003C0008810881108128812081308110810881064
:1003D0000F30C4008312ED2001308316BF003F08A8
:1003E000033C031CFF290330CA008312012105309E
:1003F0008316C4008312ED208316BF0AEF29023052
:10040000CA008312012105308316C4008312ED2037
:100410008316BF013F08033C031C1C2AC0303F0762
:10042000840083130008C400C7014408C800831275
:100430006A218316BF0A0A2A83128A150A12902B90
:100440008316440B242A272A4030C500282AC501D8
:1004500001304302C50745088038C600C701460879
:10046000C80083126A21080083164208073A8312E3
:100470000319442A0B3A03194B2A063A0319572A3F
:10048000023A03195F2A662A01308316C300C400AA
:10049000831220226D2A8316C7010130C8008312FF
:1004A0006A2102308316C4008312ED206D2A0130C8
:1004B0008316C3000230C400831220226D2A8316E3
:1004C000C7011030C80083126A216D2A01308316DB
:1004D000C7004208C80083126A2108008316450835
:1004E00047068039C900C51F7A2AC409C509C40A4C
:1004F0000319C50AC71F812AC609C709C60A0319F5
:10050000C70AF801F901F701FA014708031D8B2A10
:1005100046080319A52A1030C8000310C40DC50DE4
:10052000F70DFA0D47087A02031D982A460877024C
:10053000031CA12A4608F702031CFA034708FA0223
:100540000314F80DF90DC80B8D2AC91FAC2AF80940
:10055000F909F80A0319F90A831208008316410BF6
:10056000F82A4008C5003F08C400C7010A30C60089
:1005700083126E2279088316C3007808C2004308EC
:10058000C5004208C400C7010A30C60083126E22AB
:1005900077088316C2007A08C300513042078400EE
:1005A00083134318831700088312E500831640085D
:1005B000C5003F08C400C7010A30C60083126E227E
:1005C00077088316C2007A08C300513042078400BE
:1005D00083134318831700088312E6005B08E700C3
:1005E0005B08E8006208E9005208EA00D72B83168E
:1005F0004108023C031D432B4008C5003F08C400CE
:10060000C7010A30C60083126E2279088316C30020
:100610007808C2004308C5004208C400C7010A3078
:10062000C60083126E2277088316C2007A08C300C0
:100630005130420784008313431883170008831244
:10064000E50083164008C5003F08C400C7010A3012
:10065000C60083126E2277088316C2007A08C30090
:100660005130420784008313431883170008831214
:10067000E6005B08E7005B08E8006208E900530851
:10068000EA00D72B83164108033C031D8E2B40083C
:10069000C5003F08C400C7010A30C60083126E229D
:1006A00079088316C3007808C2004308C5004208D1
:1006B000C400C7010A30C60083126E227708831671
:1006C000C2007A08C30051304207840083134318E4
:1006D000831700088312E50083164008C5003F0811
:1006E000C400C7010A30C60083126E227708831641
:1006F000C2007A08C30051304207840083134318B4
:10070000831700088312E6005B08E7005B08E80037
:100710006408E9005208EA00D72B83164108043C1C
:10072000031DD82B4008C5003F08C400C7010A308C
:10073000C60083126E2279088316C3007808C200AF
:100740004308C5004208C400C7010A30C60083122E
:100750006E2277088316C2007A08C3005130420720
:10076000840083134318831700088312E50083165F
:100770004008C5003F08C400C7010A30C600831204
:100780006E2277088316C2007A08C30051304207F0
:10079000840083134318831700088312E6005B0864
:1007A000E7005B08E8006408E9005308EA008316E4
:1007B000831208000918E12B8316AD0A0319AE0A4B
:1007C000831283162D08F7002E08FA007A08031DFD
:1007D000EE2BF708831203191C2C83167A08031DCD
:1007E000F72B0130770283120319432C83167A0802
:1007F000031D002C0230770283120319A92C8316E3
:100800007A08031D092C03307702831203190E2D79
:1008100083167A08031D122C043077028312031901
:10082000742D83167A08031D1B2C05307702831262
:100830000319D92D8316982E30303202513E840090
:1008400083130008E50030303302513E84008313E7
:100850000008E60030303502513E84008313000862
:10086000E7005B08E80030304202513E8400831309
:100870000008E90030304302513E84008313000831
:10088000EA008316982E8918722C89185B2C83161F
:10089000B50A0319B60A3608873C0318592CFF3AE3
:1008A000031D562C3508B73C0318592C83125B2CBA
:1008B00083168312452C8316B601B501A50A0319C8
:1008C000A60AA61B702CA608031D6A2C2508623CEC
:1008D0000318702CA508031D6F2CA608031D0030FB
:1008E0009D2C831209199E2C09198A2C8316B50A8E
:1008F0000319B60A3608873C0318882CFF3A031DF3
:10090000852C3508B73C0318882C83128A2C831653
:100910008312742C8316B601B50125080319A603AA
:10092000A503A61B9A2CA608031D9D2C2508013C97
:10093000031C9D2CA6010130A500831283162608F6
:10094000C0002508BF000130C1008312AE2283160B
:10095000982E8918D82C8918C12C8316B30A03192C
:10096000B40A3408873C0318BF2CFF3A031DBC2C83
:100970003308B73C0318BF2C8312C12C8316831293
:10098000AB2C8316B401B301A70A0319A80AA81B4C
:10099000D62CA808031DD02C2708623C0318D62C9F
:1009A000A708031DD52CA808031D0030022D8312B3
:1009B0000919032D0919F02C8316B30A0319B40A77
:1009C0003408873C0318EE2CFF3A031DEB2C330848
:1009D000B73C0318EE2C8312F02C83168312DA2C0A
:1009E0008316B401B30127080319A803A703A81BA2
:1009F000002DA808031D022D2708013C031C022D11
:100A0000A801A701831283162808C0002708BF0089
:100A10000230C1008312AE228316982E89183D2D14
:100A20008918262D8316B70A0319B80A3808873C97
:100A30000318242DFF3A031D212D3708B73C031856
:100A4000242D8312262D83168312102D8316B801B0
:100A5000B701A90A0319AA0AAA1B3B2DAA08031D5C
:100A6000352D2908623C03183B2DA908031D3A2D9A
:100A7000AA08031D0030682D83120919692D091970
:100A8000552D8316B70A0319B80A3808873C03188E
:100A9000532DFF3A031D502D3708B73C0318532D33
:100AA0008312552D831683123F2D8316B801B7018B
:100AB00029080319AA03A903AA1B652DAA08031D67
:100AC000682D2908013C031C682DAA010130A900EA
:100AD000831283162A08C0002908BF000330C10012
:100AE0008312AE228316982E8918A32D89188C2D77
:100AF0008316B90A0319BA0A3A08873C03188A2DE3
:100B0000FF3A031D872D3908B73C03188A2D83123D
:100B10008C2D83168312762D8316BA01B901AB0A88
:100B20000319AC0AAC1BA12DAC08031D9B2D2B088F
:100B3000623C0318A12DAB08031DA02DAC08031DBA
:100B40000030CD2D83120919CE2D0919BB2D831626
:100B5000B90A0319BA0A3A08873C0318B92DFF3AB3
:100B6000031DB62D3908B73C0318B92D8312BB2DD0
:100B700083168312A52D8316BA01B9012B08031918
:100B8000AC03AB03AC1BCB2DAC08031DCD2D2B0848
:100B9000013C031CCD2DAC01AB01831283162C0844
:100BA000C0002B08BF000430C1008312AE228316A0
:100BB000982E8316A61FDF2DA81FEB2DE12DA81B55
:100BC000142E26082802031C142E031DEB2D2508C5
:100BD0002702031C142EAA1FF02DAC1FFC2DF22D92
:100BE000AC1B142E2A082C02031C142E031DFC2DF2
:100BF00029082B02031C142E83125E08E5006008EE
:100C0000E6006008E7005B08E8005B08E9005B08B5
:100C1000EA0004308316BF00FA30C4008312ED20CE
:100C20008316BF0B0C2E962E83120B08F7008B1326
:100C300003178D01831603132508831203178C00F5
:100C400083168C130C1555308D00AA308D008C1432
:100C50008C18282E0C117708831203138B040B08B1
:100C6000F7008B13013003178D0083160313270839
:100C7000831203178C0083168C130C1555308D00CE
:100C8000AA308D008C148C18432E0C117708831217
:100C900003138B040B08F7008B13023003178D002E
:100CA000831603132908831203178C0083168C13F1
:100CB0000C1555308D00AA308D008C148C185E2ECA
:100CC0000C117708831203138B040B08F7008B13A6
:100CD000033003178D00831603132B0883120317A9
:100CE0008C0083168C130C1555308D00AA308D00A6
:100CF0008C148C18792E0C117708831203138B0433
:100D00005B08E5005B08E6005B08E7005B08E800BD
:100D10005B08E9005B08EA0004308316BF00FA3084
:100D2000C4008312ED208316BF0B8F2EAE01AD01E0
:100D30008312091C992E8A150A12A72B8316C1014A
:100D400083124B1CA32E8316BF013F08073C031CD4
:100D5000FC2EC001051483120518BB2E8316C00A91
:100D60004008643C0318B82E83124B14BB2E831624
:100D7000B92EAA2E83121330F700F70BBD2EC02E0A
:100D80008316051483120518D82E83163F08073CD6
:100D9000C2000130F7004208F8000319D32E0310F7
:100DA000F70DF80BCF2E7708FF3AC105F82E831206
:100DB00083163F08073CC2000130F7004208F800E4
:100DC0000319E62E0310F70DF80BE22E7708C10485
:100DD00005148312051CF92E8316C00A4008643CD2
:100DE0000318F62E83124B14F92E8316F72EE82ED5
:100DF00083128316BF0AA52E4108F800831208004B
:100E00000B088316BF0083128B13831603178C17EE
:100E10000C14000000000313BF1F112F83128B1747
:100E20008316831203170C087F390319722F831658
:100E30000313BF00831203170D0883160313C000AA
:100E4000831203170F0883160313C1003F08C20063
:100E50008312342283164008831203178D008316F1
:100E600003134108831203178F0003130B08831623
:100E7000C20083128B13831603178C170C14000007
:100E800000000313C21F472F83128B178316831290
:100E900003170C0D0E0D7F390319722F83160313E0
:100EA000BF00831203170D0883160313C0008312BB
:100EB00003170F0883160313C1003F08C2008312F3
:100EC000342283164008831203178D008316031300
:100ED0004108831203178F008D0A03198F0A031329
:100EE000002F03170313080083164008F8013F0280
:100EF00003187D2F3F08F700892FF7010830C10044
:100F0000BF0DF70D400877020318F700F80DC10B6D
:100F1000802F83120800F701F8018316410803109F
:100F20004218F707F70CF80CC218F707F70CF80C83
:100F30004219F707F70CF80CC219F707F70CF80C71
:100F4000421AF707F70CF80CC21AF707F70CF80C5F
:100F5000421BF707F70CF80CC21BF707F70CF80C4D
:100F60008312080080080319CE2F8316C0010408DD
:100F7000BF004010831B40140008C20083123422BB
:100F800083163F088400831340188317840A031DC7
:0E0F9000CC2F8312850A83168312B22F08001D
:101000000B088316C00083128B13831603178C17EB
:101010000C14000000000313C01F112883128B174B
:10102000831603184B28831203170C087F39831685
:101030000313C000831203170D0883160313C100A6
:10104000831203170F0883160313C200400883128C
:101050000C1E2828990083164108831203178D005F
:10106000831603134208831203178F0003130B0820
:101070008316C30083128B13831603178C170C146B
:10108000000000000313C31F482883128B17831628
:10109000BF0B4B287A28831203170C0D0E0D7F39D6
:1010A00083160313C000831203170D08831603135E
:1010B000C100831203170F0883160313C2004008F0
:1010C00083120C1E612899008316410883120317AE
:1010D0008D00831603134208831203178F008D0AB5
:1010E00003198F0A031083160313BF0B78287A287D
:1010F00083120028831208008316C7010408C60063
:101100004710831B4714400EF038C200C207E23E6E
:10111000C300323EC50040080F39C307C307C507E7
:10112000E93EC400C407C4073F0E0F39C407C50712
:10113000C40DC50DC509C50D3F080F39C507C20D42
:101140000730C1000A30C507C403031CA328C40725
:10115000C303031CA728C307C203031CAB28C20791
:10116000C103031CAF28C130840083130730460538
:1011700046138407C5300402031946170008F70018
:10118000031DCA28461BCA28461AD428C619CA28CD
:101190002030CD28C61546123030F7077708831265
:1011A0000C1ED02899008316840A461FBA28831281
:1011B00008004B1083160510051083120510193016
:1011C0008316C4008A118312ED208A158316051038
:1011D000831205141330F700F70BEC28EF28831661
:1011E00005141A30F700F70BF328000005148312DA
:1011F000051809293530F700F70BFC28831605146C
:101200008312051C09292130F700F70B052901304D
:10121000F800F80803192F2A8A119E268A157808E3
:10122000CE008A119E268A157808CF008A119E2644
:101230008A157808CC008A119E268A157808CD0078
:101240008A119E268A157808D0004B1C41290C3043
:101250008316C2008A11831234228A150530831640
:10126000C3000130C4008A11831220228A154F3036
:1012700003178D0000308F008A11031300278A1591
:101280002E2A4F084E074C074D075002031D162A01
:101290004C088316BF000A30C0008A1183127427DD
:1012A0008A1530307807B2004C088316BF000A3028
:1012B000C0008A11831274278A1530307707B30073
:1012C0004D088316BF000A30C0008A1183127427AC
:1012D0008A1530307807B5004E088316BF000A30F3
:1012E000C0008A11831274278A1530307807C20033
:1012F0004E088316BF000A30C0008A11831274277B
:101300008A1530307707C3004F088316BF000A30B4
:10131000C0008A11831274278A1530307807C500FF
:10132000DF30B600303032028316C000C1000A3010
:10133000C2008A1183128B278A1578088316BF0092
:1013400030308312330283163F07FA01AF007A0868
:10135000B0003030831242028316C000C1000A3050
:10136000C2008A1183128B278A1578088316BF0062
:1013700030308312430283163F07FA01B1007A0826
:10138000B2005530831203178D0000308F00031018
:10139000053083160313BF00831200201030840031
:1013A00083163008C0002F08BF0083127C205930FC
:1013B00003178D0000308F000310053083160313D0
:1013C000BF00831200201030840083163208C00052
:1013D0003108BF0083127C2020300C1EED299900BB
:1013E0000A300C1EF12999000D300C1EF5299900C8
:1013F00001308316C300C4008A11831220228A158B
:101400002B30840083138A11B2278A15013083168A
:10141000C3000230C4008A11831220228A153B3097
:10142000840083138A11B2278A152E2A0C30831662
:10143000C2008A11831234228A1501308316C30038
:10144000C4008A11831220228A155F3003178D0091
:1014500000308F008A11031300278A155A2A0C3096
:101460008316C2008A11831234228A150330831630
:10147000C3000130C4008A11831220228A1568300B
:1014800003178D0000308F008A11031300278A157F
:1014900001308316C3000230C4008A118312202257
:1014A0008A156E3003178D0000308F008A110313E8
:1014B00000278A158A150A12A92B8316A61F632AEC
:1014C000B01F6F2A652AB01B742A26083002031C3D
:1014D000742A031D6F2A25082F02031C742A851005
:1014E00083128514882A8316B01F792AA81F852A9B
:1014F0007B2AA81B892A30082802031C892A031D7D
:10150000852A2F082702031C892A8510831285103B
:101510008316AA1F8E2AB21F9A2A902AB21B9F2ACC
:101520002A083202031C9F2A031D9A2A2908310225
:10153000031C9F2A051183120515B32A8316B21FB7
:10154000A42AAC1FB02AA62AAC1BB42A32082C024B
:10155000031CB42A031DB02A31082B02031CB42A31
:10156000051183120511831683128A150A12AA2BFC
:1015700003081F3983000C3083169900A2309800AD
:10158000903083129800EE01EF01F0010130F1007C
:101590008316A401AE01AD01B401B301B601B501DA
:1015A000B801B701BA01B901BC01BB01BD01FF30EF
:1015B000BE001F149F141F159F1107309C0083133A
:1015C00054308312AB006530AC006D30AD0070302C
:1015D000AE002030AF003D30B0002030B1003030E0
:1015E000B200B3002E30B4003030B5002030B60069
:1015F0004330B7002030B800B900BA015230BB0008
:101600004830BC002030BD00BE00BF003D30C000EF
:101610002030C1003030C200C3002E30C400303052
:10162000C5002030C6002530C7002030C800C900E2
:10163000CA013F30D1000630D2005B30D3004F30BA
:10164000D4006630D5006D30D6007D30D70007302D
:10165000D8007F30D9006F30DA00C030DB0079303D
:10166000DC007830DD005C30DE005430DF007130AB
:10167000E0004030E1007830E2007330E300F63003
:10168000E40003178D0183168C130C1483120C08CD
:10169000FA0183160313A5007A08A600013083120D
:1016A00003178D0083168C130C1483120C08FA0197
:1016B00083160313A7007A08A800023083120317C9
:1016C0008D0083168C130C1483120C08FA018316F8
:1016D0000313A9007A08AA000330831203178D00B0
:1016E00083168C130C1483120C08FA01831603134F
:1016F000AB007A08AC00003086001F149F141F1541
:101700009F110108C03906388100803083128100A2
:101710008B1683160C10C03083128B048A11CC29CF
:101720008A150C308316C2008A11831234228A155E
:1017300004308316BF00FA30C4008A118312ED20F2
:101740008A158316BF0B9B2B8A118312DA2B8A15FD
:10175000D9285D2A0A308316C4008A118312ED202D
:081760008A158316A42B630017
:104200001900140032002800000000000000000027
:02400E00723FFF
:00000001FF
;PIC16F877A
;CRC=35B8  CREATED="12-Jan-23 14:39"
